:100006003A00504D00414D004D4F4E44415920009D
:100016005455455344415920005745444E45534491
:1000260041592000544855525344415920004652E4
:1000360049444159200053415455524441592000E6
:1000460053554E4441592000414C41524D004F4EAC
:10005600004F46460020414D0020504D00434C4B7A
:10006600205345543A4300414C4D205345543A469B
:1000760000434C4F434B2053455400414C4D2053B5
:100086004554005345434F4E443A004D494E55544E
:1000960045533A00484F5552533A004441593A00A5
:1000A600444154453A004D4F4E54483A0059454153
:1000B600523A007E1111117E007F4949493E003EA9
:1000C60041414122007F4141413E007F494949412A
:1000D600007F091D0103003E4141493B007F08089E
:1000E600087F0000417F410000304040413F007FD3
:1000F60008142241007F40404060007F0608067FCA
:10010600007F0608307F003E4141413E007F0909DD
:100116000906001E2161611E007F09192946006635
:10012600494949330003017F0103003F4040403FF6
:10013600000F3040300F003F4030403F006314084E
:10014600146300030C700C03006151494543000021
:100156000000000000000022000000004000000037
:10016600007F4141417F0000427F400000426151D3
:10017600494600494949497F001814127F10004F2B
:1001860049494979007F49494979000171090503BF
:10019600003649494936004F4949497F0040607059
:1001A600787C7E7F7E7C787060400000E08483836C
:1001B60084E00000000000000000FF0063FF006D07
:1001C600FF0077FF0081FF0089FF0091FF009AFF83
:0B01D60000A1FF00A6FF00ACFF00B37B
:100AF50001420001580010460102034E040506415B
:080B05000708094645004443BE
:100AC300D3EF9400EE9400400F7DFADDFE7DF7DD59
:080AD300FEEF1F70EB1E80E82E
:010ADB0022F8
:070B4400D2B7D2B6C2B622FF
:090B3200C2B7C2B6D2B7D2B62296
:02096F00AD07D2
:100971007C07C2B774017E00A804088005C333CE8A
:1009810033CED8F9FFEDFBEF5B6003D38001C39257
:0C099100B6D2B71CC3EC6480948050D632
:01099D002237
:1009F000E4FF7E07D2B730B60D7401A80608800266
:100A0000C333D8FC4207C2B71EC3EE648094805043
:010A1000E302
:010A110022C2
:100A5400A905120B4412096F120A64AF0112096F3F
:0C0A6400C2B7D2B6D2B720B6FDC2B7228E
:070B4B00C2B7D2B6D2B722F7
:100ADC00AE07AA03120A54AF0212096F120A64126B
:090AEC000B327F057E00020AC3F3
:020A7000AA07D3
:100A7200120A54120B44EA4401FF12096F120A646B
:090A82001209F0120B4B120B32A9
:010A8B002248
:100A3400EF7005C2A4C2A522BF0105D2A5C2A4229B
:100A4400BF0205C2A5D2A422BF0304D2A5D2A42208
:090B3B00C2A18F80D2A2C2A22245
:0B0AA8007FB87D01120AB37D017F4082
:100AB300AE05AD07AF06120A34C2A0AF05020B3B69
:050B5200D2A0020B3BE4
:1009C900C2A3D2A37D037F3E120AB37D037F3F12E8
:1009D9000AB37D037F40120AB37D037FB8120AB3BD
:0709E9007D037FC0020AB389
:100A1200E4FCEC24B8FF7D03120AB37D037F40128D
:100A22000AB3E4FEE4FF120B520EBE40F70CBC0800
:010A3200E1E2
:010A330022A0
:020A8C00AC05B7
:100A8E00EF24B8FF120AB3AD047F40120AB3E4FE9E
:090A9E00E4FF120B520EBE40F7FA
:010AA700222C
:04099E00C4540FFF2F
:0209A200AE079E
:1009A400E4FDEE75F006A42467F582E43401F583D2
:1009B400E5822DF582E43583F583E493FF120B522F
:0409C4000DBD06DE81
:0109C800220C
:0C05BD00540FFF1209A27BFF7A007906A0
:0605C9008B3B8A3C893DDA
:1005CF00E4FCAB3BAA3CA93D8C82758300120481ED
:1005DF0070030206A1E4F53EAB3BAA3CA93D8C8219
:1005EF00758300120481FFC3648094C1402ED3EF42
:1005FF00648094DA5026EF3395E0FE90FF3375F068
:10060F0006EF1204AEEE75F006A42583F583E5829E
:10061F00253EF582E43583F583E48061AB3BAA3C4C
:10062F00A93D8C82758300120481FFC3648094B04E
:10063F004011D3EF648094B95009EF24D0FF120911
:10064F00A2803FAB3BAA3CA93D8C8275830012046C
:10065F0081FEB42007E53E9001558021EEB43A07A4
:10066F00E53E90015B8016AB3BAA3CA93D8C8275A1
:10067F008300120481B42E0AE53E90016193FF12AC
:10068F000B52053EE53EC3940650030205E70C02EC
:02069F0005D183
:0106A1002236
:0F0B2200E4FEEE9001A393FF120B520EBE15F3EB
:010B310022A1
:1004BA007D027FD0120A708F4585454353451FE55B
:1004CA004512099EE5451205BD7D017FD0120A70CD
:1004DA008F56E55612099EE5561205BDE4FD7FD0FA
:1004EA00120A708F5AE55A12099EE55A540FFF12E2
:1004FA0009A2E5437BFF30E5067A00790880047A91
:10050A0000790B1205C97FBC120AAA7D037FD0129B
:10051A000A708F59E559B401087BFF7A00790E8079
:10052A004CE559B402087BFF7A007916803FE559F9
:10053A00B403087BFF7A00791F8032E559B40408B6
:10054A007BFF7A00792A8025E559B405087BFF7A72
:10055A000079348018E559B406087BFF7A00793CA3
:10056A00800BE559B407097BFF7A0079461205C961
:10057A007D017FBE120AAC7D047FD0120A708F44BF
:10058A00E54412099EE5441205BD7D057FD0120A95
:10059A00708F57E55712099EE5571205BD7D067FF4
:1005AA00D0120A708F5BE55B12099EE55B540FFF60
:0305BA000209A291
:10092C008D3C8B3DAB07E4FD7FD0120ADCAB3C7DEC
:10093C00017FD0120ADCAB3D7D027FD0120ADCAB0A
:10094C003E7D037FD0120ADCAB3F7D047FD0120AC0
:10095C00DCAB407D057FD0120ADCAB417D067FD03D
:03096C00020ADCA0
:100750007D027FB9120AB37D027F40120AB37BFF8C
:100760007A00794E1205C9E558B401167D027FBBA7
:10077000120AB37D027F40120AB37BFF7A007954DC
:100780008018E55870177D027FBB120AB37D027F87
:1007900040120AB37BFF7A0079571205C97D027FA8
:1007A000BD120AB37D027F40120AB3E4FD7FA0129E
:1007B0000A708F0B7D017FA0120A70AC07EC5420E9
:1007C000F50CC4135407F50C53041FEC12099EECEE
:1007D0001205BDE50B12099EE50B540FFF1209A28D
:1007E000E50C7BFF70067A00795B80047A00795F04
:0307F0001205C926
:0107F30022E3
:100B0E008F3BAB05E4FD7FA0120ADCAB3B7D017F82
:040B1E00A0020ADC4B
:1008D800E4FD7FA0120A708F0B7D017FA0120A70C1
:1008E8008F0C7D017FD0120A708F0D7D027FD01290
:1008F8000A70E50C6F702CE50B650D70267D027F84
:10090800BE120AB37D027F40120AB3120B22C2B58F
:100918007F107E27120AC3E4F558D2B57D027FBE48
:03092800120A8C24
:01092B0022A9
:1006A200C297C296C295C294D293D292D291D2905C
:1006B200A29182908292829340F67F647E00120A17
:1006C200C3C294D297D296D295A2918290829282FC
:1006D200934004E4FB8040C295D297D296D294A272
:1006E2009182908292829340047B01802AC296D2A8
:1006F20097D295D294A29182908292829340047B67
:10070200028014C297D296D295D294A291829082FC
:1007120092829340027B03209004E4FC8013209198
:10072200047C01800C2092047C0280052093027CD0
:10073200037F647E00120AC3A29182908292829306
:0D07420050F6EB25E025E024462CF8E6FFFC
:01074F002287
:1001E100780B7C007D007BFF7A0179B87E007F0867
:1001F10012045BE4F517F518F519781A7C00FD7BFC
:10020100FF7A0179C0FE7F0C12045B78267C007DA9
:10021100007BFF7A0179CC7E007F1512045B751398
:10022100B87D03AF13120A8C0513E513D394BF40B5
:10023100F0120A12E4F513E51324B8FF120AAAE535
:100241001375F003A4241AF8860308E6FA08E6F900
:100251001205C90513E513C3940240DB1206A28FF0
:10026100147513B87D03AF13120A8C0513E513D36C
:1002710094BF40F0120A12E514B44314E4F5157565
:100281001607751701120AA8AB20AA21A922801806
:10029100E5146446708875150175160375580112C9
:1002A1000AA8AB23AA24A9251205C9851513E513AC
:1002B100C395165064E51324B9FF120AAAE5137514
:1002C100F003A42426F8860308E6FA08E6F91205E5
:1002D100C91206A28F14E514C39400401BE514D380
:1002E10094095014740B2513F8E675F00AA425142B
:1002F100F6AF141209A280D9E514B44105751801AD
:1003010080CFE514B4450122E514B44E028006E520
:10031100146444600405138095851513E513C39592
:1003210016502A740B2513F8E6FF75F00A84AEF017
:10033100EF75F00A84C454F0FFEE540FFDEF54F052
:100341004DFD740B2513F8A605051380CFE518B4F0
:100351000105430D608003430D40E5176015850ECF
:100361003E850F3F851040851141AB0DAD0CAF0BA4
:1003710012092CE558600BE5177007AD0CAF0D1293
:090381000B0E7FC87E00120AC3B6
:01038A002250
:03000300020B5796
:040B570075420132B0
:10088000750901E4F50AD2A8D2AFC2881209C97568
:1008900008B87D03AF08120A8C0508E508D394BF99
:1008A00040F07D017FB9120AAC1204BA120750E57C
:1008B0005860031208D8E54260E81201E17508B8F3
:1008C0007D03AF08120A8C0508E508D394BF40F0F9
:0808D000120A12E4F54280CA8D
:030000000207F400
:0C07F400787FE4F6D8FD75815B02083BBD
:10038B00E709F608DFFA8046E709F208DFFA803E54
:10039B0088828C83E709F0A3DFFA8032E309F60841
:1003AB00DFFA8078E309F208DFFA807088828C83A9
:1003BB00E309F0A3DFFA806489828A83E0A3F6085D
:1003CB00DFFA805889828A83E0A3F208DFFA804C37
:1003DB0080D280FA80C680D4806980F2803380100E
:1003EB0080A680EA809A80A880DA80E280CA803377
:1003FB0089828A83ECFAE493A3C8C582C8CCC583EF
:10040B00CCF0A3C8C582C8CCC583CCDFE9DEE780BE
:10041B000D89828A83E493A3F608DFF9ECFAA9F03D
:10042B00EDFB2289828A83ECFAE0A3C8C582C8CC93
:10043B00C583CCF0A3C8C582C8CCC583CCDFEADEAC
:10044B00E880DB89828A83E493A3F208DFF980CC0E
:10045B0088F0EF60010E4E60C388F0ED2402B40407
:10046B000050B9F582EB2402B4040050AF232345AE
:06047B0082239003DB73F5
:10048100BB010CE58229F582E5833AF583E0225030
:1004910006E92582F8E622BBFE06E92582F8E2227A
:0D04A100E58229F582E5833AF583E4932294
:0C04AE00A42582F582E5F03583F5832259
:10080000020880E493A3F8E493A34003F68001F286
:1008100008DFF48029E493A3F85407240CC8C333F9
:10082000C4540F4420C8834004F456800146F6DFC8
:10083000E4800B0102040810204080900AF5E47E59
:10084000019360BCA3FF543F30E509541FFEE493BD
:10085000A360010ECF54C025E060A840B8E493A384
:10086000FAE493A3F8E493A3C8C582C8CAC583CAAF
:10087000F0A3C8C582C8CAC583CADFE9DEE780BE67
:010B0D0000E7
:00000001FF
