:1001560020504D0020414D0053554E20004D4F4E2E
:10016600200054554520005745442000544855204A
:0B017600004652492000534154200075
:0601E800D2B67F027E008A
:1001EE00D3EF9400EE9400400F7DFADDFE7DF7DD37
:0801FE00FEEF1F70EB1E80E80C
:0102060022D5
:0C02A3008F80C2B5C2B41201E8C2B622BE
:06029100C4540F2430FFED
:0C0297008F80D2B4C2B51201E8C2B622BA
:100207007F011202A37F021202A37F061202A37FBD
:0E0217000C1202A37F381202A37F800202A302
:100181008B108A118912AB10AA11A9121202786080
:10019100130512E5127002051114F9120278FF120B
:0501A100029780E2223C
:0702C400D291D290C29022FA
:0902BB00C291C290D291D29022AE
:02012700AD0722
:100129007C07C29174017E00A804088005C333CE00
:1001390033CED8F9FFEDFBEF5B6003D38001C392A7
:0C01490090D2911CC3EC6480948050D6CE
:010155002287
:1001A600E4FF7E07D29130900D7401A80608800204
:1001B600C333D8FC4207C2911EC3EE6480948050BC
:0101C600E355
:0101C7002215
:10024200A9051202C4120127120252AF011201279C
:0C025200C291D290D2912090FDC2912266
:0702CB00C291D290D29122F2
:04022500E4FB7FD0A7
:10022900AE07AA03120242AF0212012712025212AA
:0902390002BB7F0A7E000201EE07
:0401C8007D047FD063
:0201CC00AA0780
:1001CE001202421202C4EA4401FF12012712025225
:0901DE001201A61202CB1202BBB1
:0101E70022F5
:1000F100E4FBFD7FD01202297D011202257B717D77
:10010100027FD01202297D03120225E4FB7D047FC8
:10011100D01202297B017D057FD01202297B147D3B
:06012100067FD002022956
:100003007D027FD01201CC8F0A850A08530A1FE5AF
:100013000A120291E50A1202927D017FD01201CCED
:100023008F0BE50B120291E50B120292E4FD7FD0D8
:100033001201CC8F0EE50E120291E50E120292E52B
:10004300087BFF30E5067A01795680047A01795AF4
:100053001201817D037FD01201CC8F0DE50D700855
:100063007BFF7A01795E804CE50DB401087BFF7A52
:10007300017963803FE50DB402087BFF7A0179685B
:100083008032E50DB403087BFF7A01796D8025E5A5
:100093000DB404087BFF7A0179728018E50DB4056D
:1000A300087BFF7A017977800BE50DB406097BFFA6
:1000B3007A01797C1201817FC01202A31201C88FD9
:1000C30009E509120291E5091202921201C88F0C87
:1000D300E50C120291E50C1202921201C88F0FE592
:0E00E3000F120291E50F540F2430FF02029716
:10025E001202077F6B1202971200F17F6A12029749
:0A026E001200037F801202A380F645
:030000000202AF4A
:0C02AF00787FE4F6D8FD75811202025E33
:10027800BB010689828A83E0225002E722BBFE0284
:09028800E32289828A83E49322B7
:00000001FF
